:020000040000FA
:100000000C9465000C948D000C948D000C948D0064
:100010000C948D000C948D000C948D000C948D002C
:100020000C948D000C948D000C948D000C948D001C
:100030000C948D000C948D000C948D000C948D000C
:100040000C946D030C948D000C94DD030C94B70399
:100050000C948D000C948D000C948D000C948D00EC
:100060000C948D000C948D00000102030405000027
:1000700000002300260029000000000024002700C3
:100080002A0000000000250028002B0004040404BE
:100090000404040402020202020203030303030332
:1000A000010204081020408001020408102001020F
:1000B00004081020000000080002010000030407EB
:1000C00000000000000000000F0411241FBECFEF4D
:1000D000D8E0DEBFCDBF11E0A0E0B1E0E0E0FFE09E
:1000E00002C005900D92AA35B107D9F722E0AAE522
:1000F000B1E001C01D92AE33B207E1F710E0C5E6F2
:10010000D0E004C02197FE010E947807C436D107D1
:10011000C9F70E945F040C947E070C9400008330A2
:1001200081F028F4813099F08230A9F00895873069
:10013000A9F08830C9F08430B1F4809180008F7DBF
:1001400003C0809180008F7780938000089584B5EC
:100150008F7784BD089584B58F7DFBCF8091B000EB
:100160008F778093B00008958091B0008F7DF9CF94
:100170001F93CF93DF93282F30E0F901EC54FF4F0A
:100180008491F901E056FF4FD491F901E457FF4FF4
:10019000C491CC23A9F0162F81110E948F00EC2F5F
:1001A000F0E0EE0FFF1FEE57FF4FA591B4918FB710
:1001B000F894EC91111108C0D095DE23DC938FBF29
:1001C000DF91CF911F910895DE2BF8CF682F80919A
:1001D00023020E94B80080913A0290913B02823043
:1001E000910538F0880F991F880F991F059701977F
:1001F000F1F7089581E00C94E600682F80912202C7
:100200009091230289130C94B8000895CF93DF9343
:1002100090E0FC01E056FF4F249184579F4FFC0172
:1002200084918823C9F090E0880F991FFC01E85859
:10023000FF4FA591B491FC01EE57FF4FC591D491AA
:1002400061110DC09FB7F8948C91209582238C93F7
:100250008881282328839FBFDF91CF910895623042
:1002600051F49FB7F8943C91822F809583238C930F
:10027000E8812E2BEFCF8FB7F894EC912E2B2C9397
:100280008FBFEACF8E50806480937C0080917A008B
:10029000806480937A0080917A0086FDFCCF809103
:1002A00078009091790008953FB7F89480917E018D
:1002B00090917F01A0918001B091810126B5A89B0A
:1002C00005C02F3F19F00196A11DB11D3FBFBA2FE8
:1002D000A92F982F8827BC01CD01620F711D811DA8
:1002E000911D42E0660F771F881F991F4A95D1F72D
:1002F00008958F929F92AF92BF92CF92DF92EF922A
:10030000FF924B015C010E9454016B017C010E9431
:1003100054016C197D098E099F09683E734081055F
:100320009105A8F321E0821A9108A108B10888EE8E
:10033000C80E83E0D81EE11CF11C81149104A104B5
:10034000B10429F7FF90EF90DF90CF90BF90AF906E
:100350009F908F900895AF92BF92CF92DF92EF92CD
:10036000FF920F931F93CF93DF936C017B018B015F
:10037000040F151FEB015E01AE18BF08C017D107AF
:1003800059F06991D601ED91FC910190F081E02D39
:10039000C6010995892B79F7C501DF91CF911F918E
:1003A0000F91FF90EF90DF90CF90BF90AF900895A6
:1003B000FC01538D448D252F30E0842F90E0821B6B
:1003C000930B541710F0CF96089501970895FC01F0
:1003D000918D828D981761F0A28DAE0FBF2FB11D48
:1003E0005D968C91928D9F5F9F73928F90E00895A0
:1003F0008FEF9FEF0895FC01918D828D981731F05A
:10040000828DE80FF11D858D90E008958FEF9FEFAD
:100410000895FC01918D228D892F90E0805C9F4F83
:10042000821B91098F739927089582E891E00E94B9
:10043000090221E0892B09F420E0822F089580E051
:1004400090E0892B29F00E94150281110C94000084
:100450000895FC01A48DA80FB92FB11DA35ABF4F59
:100460002C91848D90E001968F739927848FA689B3
:10047000B7892C93A089B1898C91837080648C9307
:10048000938D848D981306C00288F389E02D8081B6
:100490008F7D80830895EF92FF920F931F93CF93E8
:1004A000DF93EC0181E0888F9B8D8C8D98131AC0AF
:1004B000E889F989808185FF15C09FB7F894EE8996
:1004C000FF896083E889F9898081837080648083F3
:1004D0009FBF81E090E0DF91CF911F910F91FF903E
:1004E000EF900895F62E0B8D10E00F5F1F4F0F73E6
:1004F0001127E02E8C8D8E110CC00FB607FCFACFA1
:10050000E889F989808185FFF5CFCE010E94290213
:10051000F1CFEB8DEC0FFD2FF11DE35AFF4FF08271
:100520009FB7F8940B8FEA89FB8980818062CFCFD7
:10053000CF93DF93EC01888D8823B9F0AA89BB891A
:10054000E889F9898C9185FD03C0808186FD0DC005
:100550000FB607FCF7CF8C9185FFF2CF808185FF26
:10056000EDCFCE010E942902E9CFDF91CF9108950E
:100570008EBD00000DB407FEFDCF8EB50895FC01C1
:1005800001900020E9F73197AF01481B590BBC01DE
:1005900082E891E00C94AB010F931F930091240229
:1005A00010912502209126023091270240E052E16D
:1005B0006AE770E080E0041715072607370740F464
:1005C00076956795579547958F5F8630A1F787E0B9
:1005D000982F906A9695809581709CBD8DBD80E026
:1005E0001F910F910C94E600CF93C82F0E94CC026C
:1005F0008C2F80620E94B80280932802CF910C94C5
:10060000FA00CF93C82F0E94CC028C2F0E94B80210
:10061000809328028FEF0E94B802C82F0E94FA0030
:100620008C2FCF9108950F931F93CF93182FC62F20
:100630000E94CC02812F80620E94B802809328021F
:100640000EE011E0C15030F0F80181918F010E945D
:10065000B802F8CFCF911F910F910C94FA000E942D
:10066000CC0280E50E94B8028093280283E70E94B2
:10067000B8020C94FA00CF93DF93D82FC62F0E94B4
:10068000CC028D2F80620E94B802809328028C2FAA
:100690000E94B802DF91CF910C94FA00CF9386E0CC
:1006A0000E940103C82FC77D85E590E0A0E0B0E07F
:1006B0008093360290933702A0933802B0933902A8
:1006C0006C2F86E00E943B0386E00E94010391E0CC
:1006D000C81390E0892FCF9108951F920F920FB603
:1006E0000F9211242F933F938F939F93AF93BF93B8
:1006F00080917A0190917B01A0917C01B0917D0164
:100700003091790123E0230F2D3758F50196A11D73
:10071000B11D2093790180937A0190937B01A0937E
:100720007C01B0937D0180917E0190917F01A09129
:100730008001B09181010196A11DB11D80937E01C0
:1007400090937F01A0938001B0938101BF91AF91FD
:100750009F918F913F912F910F900FBE0F901F90FF
:10076000189526E8230F0296A11DB11DD2CF1F9226
:100770000F920FB60F9211242F933F934F935F93D5
:100780006F937F938F939F93AF93BF93EF93FF9359
:1007900082E891E00E942902FF91EF91BF91AF9111
:1007A0009F918F917F916F915F914F913F912F9189
:1007B0000F900FBE0F901F9018951F920F920FB6BB
:1007C0000F9211242F938F939F93EF93FF93E091B8
:1007D0009201F09193018081E0919801F09199014B
:1007E00082FD1BC0908180919B018F5F8F73209150
:1007F0009C01821741F0E0919B01F0E0EE57FE4F23
:10080000958F80939B01FF91EF919F918F912F91F5
:100810000F900FBE0F901F9018958081F4CFE2E8E3
:10082000F1E01382128288EE93E0A0E0B0E08483CE
:100830009583A683B78388E191E09183808385ECDB
:1008400090E09587848784EC90E09787868780EC9A
:1008500090E0918B808B81EC90E0938B828B82EC8B
:1008600090E0958B848B86EC90E0978B868B118E35
:10087000128E138E148EE0E2F2E089E082838AE029
:10088000838380E896E9A8E9B0E084839583A68312
:10089000B78380E28187108A118A85E0838B81E0AB
:1008A000848B85E090E0A0E0B0E0828F938FA48FEE
:1008B000B58F8FE192E09183808312860895CF9364
:1008C000DF93CDB7DEB7A1970FB6F894DEBF0FBEAA
:1008D000CDBF789484B5826084BD84B5816084BDC9
:1008E00085B5826085BD85B5816085BD80916E00CE
:1008F000816080936E0010928100809181008260FF
:10090000809381008091810081608093810080913B
:1009100080008160809380008091B100846080932A
:10092000B1008091B00081608093B00080917A0026
:10093000846080937A0080917A00826080937A004C
:1009400080917A00816080937A0080917A0080683B
:1009500080937A001092C100E0919201F09193018E
:1009600082E08083E0918E01F0918F011082E0910E
:100970009001F091910180E1808310929A01E091C1
:100980009601F091970186E08083E0919401F091C7
:100990009501808180618083E0919401F0919501BF
:1009A000808188608083E0919401F091950180813D
:1009B00080688083E0919401F091950180818F7D22
:1009C00080831FB7F89480915A01811127C0E6E90E
:1009D000F0E08491EAEAF0E09491E82FF0E0EE0F85
:1009E000FF1FE858FF4FA591B491EC91E92321F442
:1009F00061E08AE00E94B80061E08AE00E9406019E
:100A00008CB580618CBD8CB580648CBD61E08DE05F
:100A10000E94060161E08BE00E94060180915A016C
:100A20008F5F80935A011FBF809122028F3F09F48C
:100A300072C1909123029F3F09F46DC1891741F063
:100A400061E00E94060161E0809123020E9406019C
:100A500080E00E94FD0081E00E94E60065E070E019
:100A600080E090E00E9479016FE584E00E943B0302
:100A70000E944E038DE10E940103182F0E942F0354
:100A80008DE10E94010391E0181390E090933002F1
:100A9000882341F0181302C00E942F0360E08DE10B
:100AA0000E943B031092320260E08CE10E943B0303
:100AB000109234026FE381E00E943B0363E082E026
:100AC0000E943B0380E28093290211E16091290298
:100AD000812F0E943B031F5F1731C1F763E083E062
:100AE0000E943B0385E0809333026CE40E943B0349
:100AF00060E787E00E943B0382EE0E94F40281EEF1
:100B00000E94F4026CE080E00E943B0380E00E94BF
:100B1000010380932F0281FD0BC0682F62606093F8
:100B20002F0280E00E943B038BE19EE40197F1F7E6
:100B300080912F028E3009F0EEC0609133028AE07E
:100B40000E9413036091330280E10E94130386E048
:100B50000E940103887F682F616086E00E943B034A
:100B600060E585E00E943B030E944E0380E00E9406
:100B7000FD0080913602909137028230910508F095
:100B8000D3C080913202882319F081EE0E94F402D2
:100B900060912F026E7F60932F0280E00E943B03E2
:100BA00082E00E940103E8E6F0E0E49161E070E099
:100BB00001C0660FEA95EAF7682B82E00E943B03CA
:100BC0008FEF0E94F4028091280290E0959587951E
:100BD0008770863040F08AE391E00E94BF0287E38D
:100BE00091E00E94BF02EEE0EE2EE1E0FE2E00E07A
:100BF00011E0F80180810E5F1F4F62E00E94060144
:100C0000E016F106B1F760E08EE00E94060160E0B8
:100C10008FE00E94060188248A9463E0962EA12C1E
:100C2000B12C7AE0472E512C612C712C8EE00E9461
:100C300042017C018FE00E9442016C0124E630E019
:100C4000D7010E947107A50194010E9421072093FA
:100C50005B0124E630E0D6010E947107A5019401F2
:100C60000E94210720935C014DE5C42E41E0D42E63
:100C700050E0E52E51E0F52EF701219131917F01F1
:100C80003327F901EC54FF4F8491F901E056FF4FEF
:100C90002490F901E457FF4F3490332079F081110B
:100CA0000E948F00E32DF0E0EE0FFF1FE259FF4F8F
:100CB000A591B491EC912E2281E009F480E0F60137
:100CC00081936F010E151F05B9F680913402D12C66
:100CD0009EE1C92E811109C080912902C82E8F3151
:100CE00010F02EE1C22ED82EDC180E94CC0280EA31
:100CF0000E94B802809328028BE5282E81E0382ECE
:100D00007101CA94FFEFCF16B9F0F70181917F010D
:100D10000E94B802F6CF86E291E00E94BF0287E30C
:100D200091E00E94BF02FFCF880F991F880F991F83
:100D300005970197F1F725CFDA94FFEFDF1621F041
:100D400080E00E94B802F8CF0E94FA0081E00E9481
:100D5000FD008FB7F894C0907A01D0907B01E090AD
:100D60007C01F0907D018FBF8FEF0E94F402809193
:100D70002802807309F056C02FB7F89480917A0149
:100D800090917B01A0917C01B0917D012FBF8C19C6
:100D90009D09AE09BF0980369105A105B10520F373
:100DA00081E080933502F10121911F0130E050E094
:100DB00040E019A27E01F1E2EF0EF11CCA01B90177
:100DC000A30192010E944007605DF70162937F01D9
:100DD000211531054105510589F7309719F0CF01EB
:100DE0000E94BF0286E591E00E94BF0284E691E086
:100DF00082159305C1F687E391E00E94BF0264E685
:100E000070E080E090E00E947901E0E0F0E0EF2BFC
:100E100009F40CCF0E941502882309F407CF0E9421
:100E2000000004CF80E00E94FD0060E787E00E94A0
:100E30003B038091280284FFB6CF81EE0E94F4022A
:100E4000B2CF052E97FB1EF400940E94380757FD81
:100E500007D00E94400707FC03D04EF40C943807DB
:100E600050954095309521953F4F4F4F5F4F0895D6
:100E700090958095709561957F4F8F4F9F4F089506
:100E8000A1E21A2EAA1BBB1BFD010DC0AA1FBB1F8E
:100E9000EE1FFF1FA217B307E407F50720F0A21B00
:100EA000B30BE40BF50B661F771F881F991F1A946D
:100EB00069F760957095809590959B01AC01BD0197
:100EC000CF010895A29FB001B39FC001A39F700DF1
:100ED000811D1124911DB29F700D811D1124911D42
:100EE00008950E946207B7FF0895821B930B08952F
:100EF000EE0FFF1F0590F491E02D0994F894FFCFB9
:100F0000020003000400050006000700080030305E
:100F100030303200000000004B02AB01D8019802D3
:100F20000902E701FB0143616E206E6F74206F7050
:100F3000656E21212121000D0A00576169747469D1
:100F40006E6720666F7220636F6E6E6563742E2EFF
:0A0F50002E2E2E2E2E002D2D000057
:107E0000112484B714BE81FFF0D085E080938100F7
:107E100082E08093C00088E18093C10086E0809377
:107E2000C20080E18093C4008EE0C9D0259A86E02C
:107E300020E33CEF91E0309385002093840096BBD3
:107E4000B09BFECF1D9AA8958150A9F7CC24DD24C4
:107E500088248394B5E0AB2EA1E19A2EF3E0BF2EE7
:107E6000A2D0813461F49FD0082FAFD0023811F036
:107E7000013811F484E001C083E08DD089C08234E0
:107E800011F484E103C0853419F485E0A6D080C0E4
:107E9000853579F488D0E82EFF2485D0082F10E0AE
:107EA000102F00270E291F29000F111F8ED06801E7
:107EB0006FC0863521F484E090D080E0DECF843638
:107EC00009F040C070D06FD0082F6DD080E0C81688
:107ED00080E7D80618F4F601B7BEE895C0E0D1E017
:107EE00062D089930C17E1F7F0E0CF16F0E7DF06D8
:107EF00018F0F601B7BEE89568D007B600FCFDCFD4
:107F0000A601A0E0B1E02C9130E011968C91119780
:107F100090E0982F8827822B932B1296FA010C0160
:107F200087BEE89511244E5F5F4FF1E0A038BF0790
:107F300051F7F601A7BEE89507B600FCFDCF97BE46
:107F4000E89526C08437B1F42ED02DD0F82E2BD052
:107F50003CD0F601EF2C8F010F5F1F4F84911BD097
:107F6000EA94F801C1F70894C11CD11CFA94CF0C13
:107F7000D11C0EC0853739F428D08EE10CD085E9AC
:107F80000AD08FE07ACF813511F488E018D01DD067
:107F900080E101D065CF982F8091C00085FFFCCF94
:107FA0009093C60008958091C00087FFFCCF809118
:107FB000C00084FD01C0A8958091C6000895E0E648
:107FC000F0E098E1908380830895EDDF803219F02E
:107FD00088E0F5DFFFCF84E1DECF1F93182FE3DFCA
:107FE0001150E9F7F2DF1F91089580E0E8DFEE27F6
:047FF000FF270994CA
:027FFE00040479
:00000001FF
